{
  "contractName": "Auction",
  "abi": [
    {
      "constant": true,
      "inputs": [],
      "name": "manager",
      "outputs": [
        {
          "name": "",
          "type": "address"
        }
      ],
      "payable": false,
      "stateMutability": "view",
      "type": "function"
    },
    {
      "constant": true,
      "inputs": [],
      "name": "latestBid",
      "outputs": [
        {
          "name": "",
          "type": "uint256"
        }
      ],
      "payable": false,
      "stateMutability": "view",
      "type": "function"
    },
    {
      "constant": true,
      "inputs": [],
      "name": "latestBidder",
      "outputs": [
        {
          "name": "",
          "type": "address"
        }
      ],
      "payable": false,
      "stateMutability": "view",
      "type": "function"
    },
    {
      "constant": true,
      "inputs": [],
      "name": "isBidding",
      "outputs": [
        {
          "name": "",
          "type": "bool"
        }
      ],
      "payable": false,
      "stateMutability": "view",
      "type": "function"
    },
    {
      "constant": true,
      "inputs": [],
      "name": "timeBid",
      "outputs": [
        {
          "name": "",
          "type": "uint256"
        }
      ],
      "payable": false,
      "stateMutability": "view",
      "type": "function"
    },
    {
      "constant": true,
      "inputs": [],
      "name": "initBid",
      "outputs": [
        {
          "name": "",
          "type": "uint256"
        }
      ],
      "payable": false,
      "stateMutability": "view",
      "type": "function"
    },
    {
      "inputs": [],
      "payable": false,
      "stateMutability": "nonpayable",
      "type": "constructor"
    },
    {
      "constant": false,
      "inputs": [
        {
          "name": "bid",
          "type": "uint256"
        }
      ],
      "name": "auction",
      "outputs": [],
      "payable": false,
      "stateMutability": "nonpayable",
      "type": "function"
    },
    {
      "constant": false,
      "inputs": [],
      "name": "bid",
      "outputs": [],
      "payable": true,
      "stateMutability": "payable",
      "type": "function"
    },
    {
      "constant": false,
      "inputs": [],
      "name": "increaseTimeBid",
      "outputs": [],
      "payable": false,
      "stateMutability": "nonpayable",
      "type": "function"
    },
    {
      "constant": false,
      "inputs": [],
      "name": "finishAuction",
      "outputs": [],
      "payable": false,
      "stateMutability": "nonpayable",
      "type": "function"
    },
    {
      "constant": false,
      "inputs": [],
      "name": "cancelAuction",
      "outputs": [],
      "payable": false,
      "stateMutability": "nonpayable",
      "type": "function"
    }
  ],
  "bytecode": "0x608060405234801561001057600080fd5b50336000806101000a81548173ffffffffffffffffffffffffffffffffffffffff021916908373ffffffffffffffffffffffffffffffffffffffff1602179055506000600360146101000a81548160ff0219169083151502179055506108388061007b6000396000f3006080604052600436106100af576000357c0100000000000000000000000000000000000000000000000000000000900463ffffffff1680631200617f146100b45780631998aeef146100e1578063430ca46f146100eb578063481c6a75146101025780635dd672ec1461015957806367a884e51461018457806371f64634146101db5780637b6a96381461020a5780638ec08c81146102355780638fa8b79014610260578063b96f317e14610277575b600080fd5b3480156100c057600080fd5b506100df6004803603810190808035906020019092919050505061028e565b005b6100e9610329565b005b3480156100f757600080fd5b50610100610439565b005b34801561010e57600080fd5b5061011761058a565b604051808273ffffffffffffffffffffffffffffffffffffffff1673ffffffffffffffffffffffffffffffffffffffff16815260200191505060405180910390f35b34801561016557600080fd5b5061016e6105af565b6040518082815260200191505060405180910390f35b34801561019057600080fd5b506101996105b5565b604051808273ffffffffffffffffffffffffffffffffffffffff1673ffffffffffffffffffffffffffffffffffffffff16815260200191505060405180910390f35b3480156101e757600080fd5b506101f06105db565b604051808215151515815260200191505060405180910390f35b34801561021657600080fd5b5061021f6105ee565b6040518082815260200191505060405180910390f35b34801561024157600080fd5b5061024a6105f4565b6040518082815260200191505060405180910390f35b34801561026c57600080fd5b506102756105fa565b005b34801561028357600080fd5b5061028c61078f565b005b6000809054906101000a900473ffffffffffffffffffffffffffffffffffffffff1673ffffffffffffffffffffffffffffffffffffffff163373ffffffffffffffffffffffffffffffffffffffff161415156102e957600080fd5b670de0b6b3a764000081026002819055506001600360146101000a81548160ff021916908315150217905550600254600181905550600060048190555050565b6001543411151561033957600080fd5b6000600360009054906101000a900473ffffffffffffffffffffffffffffffffffffffff1673ffffffffffffffffffffffffffffffffffffffff161415156103e757600360009054906101000a900473ffffffffffffffffffffffffffffffffffffffff1673ffffffffffffffffffffffffffffffffffffffff166108fc6001549081150290604051600060405180830381858888f193505050501580156103e5573d6000803e3d6000fd5b505b33600360006101000a81548173ffffffffffffffffffffffffffffffffffffffff021916908373ffffffffffffffffffffffffffffffffffffffff160217905550346001819055506000600481905550565b6000809054906101000a900473ffffffffffffffffffffffffffffffffffffffff1673ffffffffffffffffffffffffffffffffffffffff163373ffffffffffffffffffffffffffffffffffffffff1614151561049457600080fd5b6000809054906101000a900473ffffffffffffffffffffffffffffffffffffffff1673ffffffffffffffffffffffffffffffffffffffff166108fc3073ffffffffffffffffffffffffffffffffffffffff16319081150290604051600060405180830381858888f19350505050158015610512573d6000803e3d6000fd5b50600060018190555060006002819055506000600360006101000a81548173ffffffffffffffffffffffffffffffffffffffff021916908373ffffffffffffffffffffffffffffffffffffffff1602179055506000600360146101000a81548160ff0219169083151502179055506000600481905550565b6000809054906101000a900473ffffffffffffffffffffffffffffffffffffffff1681565b60015481565b600360009054906101000a900473ffffffffffffffffffffffffffffffffffffffff1681565b600360149054906101000a900460ff1681565b60045481565b60025481565b6000809054906101000a900473ffffffffffffffffffffffffffffffffffffffff1673ffffffffffffffffffffffffffffffffffffffff163373ffffffffffffffffffffffffffffffffffffffff1614151561065557600080fd5b6000600360009054906101000a900473ffffffffffffffffffffffffffffffffffffffff1673ffffffffffffffffffffffffffffffffffffffff1614151561071857600360009054906101000a900473ffffffffffffffffffffffffffffffffffffffff1673ffffffffffffffffffffffffffffffffffffffff166108fc3073ffffffffffffffffffffffffffffffffffffffff16319081150290604051600060405180830381858888f19350505050158015610716573d6000803e3d6000fd5b505b600060018190555060006002819055506000600360006101000a81548173ffffffffffffffffffffffffffffffffffffffff021916908373ffffffffffffffffffffffffffffffffffffffff1602179055506000600360146101000a81548160ff0219169083151502179055506000600481905550565b6000809054906101000a900473ffffffffffffffffffffffffffffffffffffffff1673ffffffffffffffffffffffffffffffffffffffff163373ffffffffffffffffffffffffffffffffffffffff161415156107ea57600080fd5b6001600454016004819055506002600454141561080a57610809610439565b5b5600a165627a7a723058203b2af3db489e6b435438d70f5664e6e4bd6d0e009928f12226ddefe19b1132c10029",
  "source": "pragma solidity ^0.4.23;\n\ncontract Auction {\n    address public manager;\n    uint public latestBid;\n    uint public initBid;\n    address public latestBidder;\n    bool public isBidding;\n    uint public timeBid;\n\n    constructor() public {\n        manager = msg.sender;\n        isBidding = false;\n    }\n\n    function auction(uint bid) restricted public {\n        initBid = bid * 1 ether; //1000000000000000000;\n        isBidding = true;\n        latestBid = initBid;\n        timeBid = 0;\n    }\n\n    function bid() public payable {\n        require(msg.value > latestBid);\n\n        if (latestBidder != 0x0) {\n            latestBidder.transfer(latestBid);\n        }\n        latestBidder = msg.sender;\n        latestBid = msg.value;\n        timeBid = 0;\n    }\n\n    function increaseTimeBid() restricted public {\n        timeBid = timeBid + 1;\n        if (timeBid == 2) {\n            finishAuction();\n        }\n    }\n\n    function finishAuction() restricted public {\n        manager.transfer(address(this).balance);\n        latestBid = 0;\n        initBid = 0;\n        latestBidder = 0;\n        isBidding = false;\n        timeBid = 0;\n    }\n\n    function cancelAuction() restricted public {\n        if (latestBidder != 0x0) {\n            latestBidder.transfer(address(this).balance);\n        }\n        latestBid = 0;\n        initBid = 0;\n        latestBidder = 0;\n        isBidding = false;\n        timeBid = 0;\n    }\n\n    modifier restricted() {\n        require(msg.sender == manager);\n        _;\n    }\n}\n",
  "sourcePath": "/home/hoang/Documents/HPT/movieRatingApp/auction-ethereum/contracts/Auction.sol",
  "compiler": {
    "name": "solc",
    "version": "0.4.24+commit.e67f0147.Emscripten.clang"
  },
  "schemaVersion": "2.0.1",
  "updatedAt": "2018-12-09T06:29:16.406Z"
}