{
  "contractName": "Auction",
  "abi": [
    {
      "constant": true,
      "inputs": [],
      "name": "manager",
      "outputs": [
        {
          "name": "",
          "type": "address"
        }
      ],
      "payable": false,
      "stateMutability": "view",
      "type": "function"
    },
    {
      "constant": true,
      "inputs": [],
      "name": "latestBid",
      "outputs": [
        {
          "name": "",
          "type": "uint256"
        }
      ],
      "payable": false,
      "stateMutability": "view",
      "type": "function"
    },
    {
      "constant": true,
      "inputs": [],
      "name": "latestBidder",
      "outputs": [
        {
          "name": "",
          "type": "address"
        }
      ],
      "payable": false,
      "stateMutability": "view",
      "type": "function"
    },
    {
      "constant": true,
      "inputs": [],
      "name": "isBidding",
      "outputs": [
        {
          "name": "",
          "type": "bool"
        }
      ],
      "payable": false,
      "stateMutability": "view",
      "type": "function"
    },
    {
      "constant": true,
      "inputs": [],
      "name": "initBid",
      "outputs": [
        {
          "name": "",
          "type": "uint256"
        }
      ],
      "payable": false,
      "stateMutability": "view",
      "type": "function"
    },
    {
      "inputs": [],
      "payable": false,
      "stateMutability": "nonpayable",
      "type": "constructor"
    },
    {
      "constant": false,
      "inputs": [
        {
          "name": "bid",
          "type": "uint256"
        }
      ],
      "name": "auction",
      "outputs": [],
      "payable": false,
      "stateMutability": "nonpayable",
      "type": "function"
    },
    {
      "constant": false,
      "inputs": [],
      "name": "bid",
      "outputs": [],
      "payable": true,
      "stateMutability": "payable",
      "type": "function"
    },
    {
      "constant": false,
      "inputs": [],
      "name": "finishAuction",
      "outputs": [],
      "payable": false,
      "stateMutability": "nonpayable",
      "type": "function"
    }
  ],
  "bytecode": "0x608060405234801561001057600080fd5b50336000806101000a81548173ffffffffffffffffffffffffffffffffffffffff021916908373ffffffffffffffffffffffffffffffffffffffff1602179055506000600360146101000a81548160ff0219169083151502179055506104e18061007b6000396000f30060806040526004361061008e576000357c0100000000000000000000000000000000000000000000000000000000900463ffffffff1680631200617f146100935780631998aeef146100c0578063430ca46f146100ca578063481c6a75146100e15780635dd672ec1461013857806367a884e51461016357806371f64634146101ba5780638ec08c81146101e9575b600080fd5b34801561009f57600080fd5b506100be60048036038101908080359060200190929190505050610214565b005b6100c861024c565b005b3480156100d657600080fd5b506100df610354565b005b3480156100ed57600080fd5b506100f661044b565b604051808273ffffffffffffffffffffffffffffffffffffffff1673ffffffffffffffffffffffffffffffffffffffff16815260200191505060405180910390f35b34801561014457600080fd5b5061014d610470565b6040518082815260200191505060405180910390f35b34801561016f57600080fd5b50610178610476565b604051808273ffffffffffffffffffffffffffffffffffffffff1673ffffffffffffffffffffffffffffffffffffffff16815260200191505060405180910390f35b3480156101c657600080fd5b506101cf61049c565b604051808215151515815260200191505060405180910390f35b3480156101f557600080fd5b506101fe6104af565b6040518082815260200191505060405180910390f35b670de0b6b3a764000081026002819055506001600360146101000a81548160ff02191690831515021790555060025460018190555050565b6001543411151561025c57600080fd5b6000600360009054906101000a900473ffffffffffffffffffffffffffffffffffffffff1673ffffffffffffffffffffffffffffffffffffffff1614151561030a57600360009054906101000a900473ffffffffffffffffffffffffffffffffffffffff1673ffffffffffffffffffffffffffffffffffffffff166108fc6001549081150290604051600060405180830381858888f19350505050158015610308573d6000803e3d6000fd5b505b33600360006101000a81548173ffffffffffffffffffffffffffffffffffffffff021916908373ffffffffffffffffffffffffffffffffffffffff16021790555034600181905550565b6000809054906101000a900473ffffffffffffffffffffffffffffffffffffffff1673ffffffffffffffffffffffffffffffffffffffff163373ffffffffffffffffffffffffffffffffffffffff161415156103af57600080fd5b6000809054906101000a900473ffffffffffffffffffffffffffffffffffffffff1673ffffffffffffffffffffffffffffffffffffffff166108fc3073ffffffffffffffffffffffffffffffffffffffff16319081150290604051600060405180830381858888f1935050505015801561042d573d6000803e3d6000fd5b506000600360146101000a81548160ff021916908315150217905550565b6000809054906101000a900473ffffffffffffffffffffffffffffffffffffffff1681565b60015481565b600360009054906101000a900473ffffffffffffffffffffffffffffffffffffffff1681565b600360149054906101000a900460ff1681565b600254815600a165627a7a72305820aaf83f2c6c57b9fecc03521f00aac02314773e4c9d13753abf4c71d4ef0ca7f10029",
  "source": "pragma solidity ^0.4.23;\ncontract Auction {\n  address public manager;\n  uint public latestBid;\n  uint public initBid;\n  address public latestBidder;\n  bool public isBidding;\n\n  constructor() public {\n    manager = msg.sender;\n    isBidding = false;\n  }\n\n  function auction(uint bid) public {\n    initBid = bid * 1 ether; //1000000000000000000;\n    isBidding = true;\n    latestBid = initBid;\n  }\n\n  function bid() public payable {\n    require(msg.value > latestBid);\n\n    if (latestBidder != 0x0) {\n      latestBidder.transfer(latestBid);\n    }\n    latestBidder = msg.sender;\n    latestBid = msg.value;\n  }\n\n  function finishAuction() restricted public {\n    manager.transfer(address(this).balance);\n    isBidding = false;\n  }\n\n  modifier restricted() {\n    require(msg.sender == manager);\n    _;\n  }\n}\n",
  "sourcePath": "/home/hoang/Documents/HPT/movieRatingApp/auction-ethereum/contracts/Auction.sol",
  "compiler": {
    "name": "solc",
    "version": "0.4.24+commit.e67f0147.Emscripten.clang"
  },
  "schemaVersion": "2.0.1",
  "updatedAt": "2018-12-08T18:16:46.250Z"
}