{
  "contractName": "Auction",
  "abi": [
    {
      "constant": true,
      "inputs": [],
      "name": "manager",
      "outputs": [
        {
          "name": "",
          "type": "address"
        }
      ],
      "payable": false,
      "stateMutability": "view",
      "type": "function"
    },
    {
      "constant": true,
      "inputs": [],
      "name": "latestBid",
      "outputs": [
        {
          "name": "",
          "type": "uint256"
        }
      ],
      "payable": false,
      "stateMutability": "view",
      "type": "function"
    },
    {
      "constant": true,
      "inputs": [],
      "name": "latestBidder",
      "outputs": [
        {
          "name": "",
          "type": "address"
        }
      ],
      "payable": false,
      "stateMutability": "view",
      "type": "function"
    },
    {
      "constant": true,
      "inputs": [],
      "name": "isBidding",
      "outputs": [
        {
          "name": "",
          "type": "bool"
        }
      ],
      "payable": false,
      "stateMutability": "view",
      "type": "function"
    },
    {
      "inputs": [],
      "payable": false,
      "stateMutability": "nonpayable",
      "type": "constructor"
    },
    {
      "constant": false,
      "inputs": [
        {
          "name": "bid",
          "type": "uint256"
        }
      ],
      "name": "auction",
      "outputs": [],
      "payable": false,
      "stateMutability": "nonpayable",
      "type": "function"
    },
    {
      "constant": false,
      "inputs": [],
      "name": "bid",
      "outputs": [],
      "payable": true,
      "stateMutability": "payable",
      "type": "function"
    },
    {
      "constant": false,
      "inputs": [],
      "name": "finishAuction",
      "outputs": [],
      "payable": false,
      "stateMutability": "nonpayable",
      "type": "function"
    }
  ],
  "bytecode": "0x608060405234801561001057600080fd5b50336000806101000a81548173ffffffffffffffffffffffffffffffffffffffff021916908373ffffffffffffffffffffffffffffffffffffffff1602179055506000600260146101000a81548160ff02191690831515021790555061049c8061007b6000396000f300608060405260043610610083576000357c0100000000000000000000000000000000000000000000000000000000900463ffffffff1680631200617f146100885780631998aeef146100b5578063430ca46f146100bf578063481c6a75146100d65780635dd672ec1461012d57806367a884e51461015857806371f64634146101af575b600080fd5b34801561009457600080fd5b506100b3600480360381019080803590602001909291905050506101de565b005b6100bd61020d565b005b3480156100cb57600080fd5b506100d4610315565b005b3480156100e257600080fd5b506100eb61040c565b604051808273ffffffffffffffffffffffffffffffffffffffff1673ffffffffffffffffffffffffffffffffffffffff16815260200191505060405180910390f35b34801561013957600080fd5b50610142610431565b6040518082815260200191505060405180910390f35b34801561016457600080fd5b5061016d610437565b604051808273ffffffffffffffffffffffffffffffffffffffff1673ffffffffffffffffffffffffffffffffffffffff16815260200191505060405180910390f35b3480156101bb57600080fd5b506101c461045d565b604051808215151515815260200191505060405180910390f35b670de0b6b3a764000081026001819055506001600260146101000a81548160ff02191690831515021790555050565b6001543411151561021d57600080fd5b6000600260009054906101000a900473ffffffffffffffffffffffffffffffffffffffff1673ffffffffffffffffffffffffffffffffffffffff161415156102cb57600260009054906101000a900473ffffffffffffffffffffffffffffffffffffffff1673ffffffffffffffffffffffffffffffffffffffff166108fc6001549081150290604051600060405180830381858888f193505050501580156102c9573d6000803e3d6000fd5b505b33600260006101000a81548173ffffffffffffffffffffffffffffffffffffffff021916908373ffffffffffffffffffffffffffffffffffffffff16021790555034600181905550565b6000809054906101000a900473ffffffffffffffffffffffffffffffffffffffff1673ffffffffffffffffffffffffffffffffffffffff163373ffffffffffffffffffffffffffffffffffffffff1614151561037057600080fd5b6000809054906101000a900473ffffffffffffffffffffffffffffffffffffffff1673ffffffffffffffffffffffffffffffffffffffff166108fc3073ffffffffffffffffffffffffffffffffffffffff16319081150290604051600060405180830381858888f193505050501580156103ee573d6000803e3d6000fd5b506000600260146101000a81548160ff021916908315150217905550565b6000809054906101000a900473ffffffffffffffffffffffffffffffffffffffff1681565b60015481565b600260009054906101000a900473ffffffffffffffffffffffffffffffffffffffff1681565b600260149054906101000a900460ff16815600a165627a7a723058204ce02d7fab955a763442abbdf3ced2906b95341f4a6994a171573ecdab59c9410029",
  "source": "pragma solidity ^0.4.23;\ncontract Auction {\n  address public manager;\n  uint public latestBid;\n  address public latestBidder;\n  bool public isBidding;\n\n  constructor() public {\n    manager = msg.sender;\n    isBidding = false;\n  }\n\n  function auction(uint bid) public {\n    latestBid = bid * 1 ether; //1000000000000000000;\n    isBidding = true;\n  }\n\n  function bid() public payable {\n    require(msg.value > latestBid);\n\n    if (latestBidder != 0x0) {\n      latestBidder.transfer(latestBid);\n    }\n    latestBidder = msg.sender;\n    latestBid = msg.value;\n  }\n\n  function finishAuction() restricted public {\n    manager.transfer(address(this).balance);\n    isBidding = false;\n  }\n\n  modifier restricted() {\n    require(msg.sender == manager);\n    _;\n  }\n}\n",
  "sourcePath": "/home/hoang/Documents/HPT/movieRatingApp/auction-ethereum/contracts/Auction.sol",
  "compiler": {
    "name": "solc",
    "version": "0.4.24+commit.e67f0147.Emscripten.clang"
  },
  "schemaVersion": "2.0.1",
  "updatedAt": "2018-12-08T14:29:32.045Z"
}